:020000040800F2
:1000000048070020CD010008410700083907000813
:100010003D0700087D020008D50700080000000029
:10002000000000000000000000000000450700087C
:10003000810200080000000043070008470700088D
:10004000E7010008E7010008E7010008E7010008F0
:10005000E7010008E7010008E7010008E7010008E0
:10006000E7010008E7010008E7010008E7010008D0
:10007000E7010008E7010008E7010008E7010008C0
:10008000E7010008E7010008E7010008E7010008B0
:10009000E7010008E7010008E7010008E7010008A0
:1000A000E7010008E7010008E7010008E701000890
:1000B000E7010008E7010008E7010008E701000880
:1000C000E7010008E7010008E7010008E701000870
:1000D000E701000851070008E7010008E7010008F0
:1000E000E7010008E7010008E7010008E701000850
:1000F000E7010008E7010008E7010008E701000840
:10010000E7010008E7010008E7010008E70100082F
:10011000E7010008E7010008E7010008E70100081F
:10012000E7010008E7010008E7010008E70100080F
:1001300000F002F800F03AF80AA090E8000C8244BF
:100140008344AAF10107DA4501D100F02FF8AFF29C
:10015000090EBAE80F0013F0010F18BFFB1A43F0A5
:10016000010318472C0900004C090000103A24BF75
:1001700078C878C1FAD8520724BF30C830C144BF0C
:1001800004680C607047000000230024002500264E
:10019000103A28BF78C1FBD8520728BF30C148BFEA
:1001A0000B6070471FB51FBD10B510BD00F033F8D0
:1001B0001146FFF7F7FF00F0A7FB00F051F803B47A
:1001C000FFF7F2FF03BC00F023FB00000948804763
:1001D00009480047FEE7FEE7FEE7FEE7FEE7FEE729
:1001E000FEE7FEE7FEE7FEE704480549054A064B41
:1001F000704700004F070008310100084801002047
:10020000480700204803002048030020704770473B
:10021000704770477047754600F02CF8AE460500F1
:100220006946534620F00700854618B020B5FFF711
:10023000DBFFBDE820404FF000064FF000074FF015
:1002400000084FF0000B21F00701AC46ACE8C009F4
:10025000ACE8C009ACE8C009ACE8C0098D467047FD
:1002600010B50446AFF300802046BDE81040FFF70C
:10027000A6BF000000487047E400002000BFFEE772
:10028000704700002DE9F847024600239C467BE1B9
:100290004FF0010808FA03F4D1F8008008EA0400DE
:1002A000A0427DD1DFF8F4A2D1F80480A8EB0A09BE
:1002B000D0453AD014DCB8F1030F50D009DCB8F1C6
:1002C000000F31D0B8F1010F1CD0B8F1020F49D1A5
:1002D00020E0B8F1110F18D0B8F1120F42D11EE092
:1002E000B9F5881F25D006DCB9F5803F20D0B9F5D7
:1002F000801F37D11AE0B9F5001F18D0B9F5041FD7
:1003000030D117E0D1F80CC02DE0D1F80C8008F105
:10031000040C28E0D1F80C8008F1080C23E0D1F897
:100320000C8008F10C0C1EE000BF00BF00BF00BF36
:1003300000BF00BFD1F80880B8F1000F02D14FF024
:10034000040C0BE0D1F80880B8F1010F03D14FF095
:10035000080C146102E04FF0080C546103E04FF008
:10036000000C00E000BF00BFFF2801D8904601E06C
:1003700002F104084646FF2802D84FEA830803E04A
:10038000A3F108084FEA88084746D6F800804FF0E6
:100390000F0909FA07F928EA09080CFA07F900E039
:1003A0007AE048EA0908C6F80080D1F8048008F02D
:1003B0008058B8F1805F6FD100BFDFF8E481D8F8D2
:1003C000188048F00108DFF8D891C9F81880C846AD
:1003D000D8F8188008F00108CDF8008000BF00BFF1
:1003E0004FEAB9384FEA930958F829504FEA837811
:1003F0004FEA18794FF00F0808FA09F825EA0805BE
:10040000DFF8A081424502D14FF0000824E0DFF878
:100410009881424502D14FF001081DE0DFF88C8140
:10042000424502D14FF0020816E0DFF884814245D0
:1004300002D14FF003080FE0DFF87881424502D186
:100440004FF0040808E0DFF87081424502D14FF018
:10045000050801E04FF006084FEA83794FEA197961
:1004600008FA09F848EA0505DFF850814FEA9309D0
:1004700048F82950D1F8048008F48038B8F5803F56
:100480000BD1DFF83C81D8F8008048EA0008DFF89B
:100490003091C9F800800AE075E0DFF82481D8F8CF
:1004A000008028EA0008DFF81891C9F80080D1F828
:1004B000048008F40038B8F5003F0ED1DFF8008161
:1004C00008F10408D8F8008048EA0008DFF8F09046
:1004D00009F10409C9F800800DE0DFF8E48008F1B3
:1004E0000408D8F8008028EA0008DFF8D49009F161
:1004F0000409C9F80080D1F8048008F48018B8F520
:10050000801F0ED1DFF8B88008F10808D8F8008005
:1005100048EA0008DFF8A89009F10809C9F8008046
:100520000DE0DFF89C8008F10808D8F8008028EA80
:100530000008DFF88C9009F10809C9F80080D1F8AB
:10054000048008F40018B8F5001F0ED1DFF87080A1
:1005500008F10C08D8F8008048EA0008DFF860903D
:1005600009F10C09C9F800800DE0DFF8548008F1AA
:100570000C08D8F8008028EA0008DFF8449009F158
:100580000C09C9F800805B1CD1F8008028FA03F838
:10059000B8F1000F7FF47CAEBDE8F88700001110C1
:1005A0000010024000080140000C01400010014012
:1005B0000014014000180140001C014008000140E7
:1005C000000401400AB1016101E00B0403617047BE
:1005D00003480068034909780844014908607047E6
:1005E000100000201800002010B50848006840F0F6
:1005F000100006490860052000F070F80F2000F098
:1006000007F800F02BF8002010BD00000020024089
:1006100070B504460E4800784FF47A71B1FBF0F0E3
:100620000C490968B1FBF0F5284600F06BF808B1F9
:10063000012070BD102C07D200222146501E00F070
:100640000EF80548046001E00120F2E70020F0E721
:1006500018000020000000201400002070472DE941
:10066000F05F80460D461646002700F0B5F80746B5
:1006700039462A46334601F00700C0F1070ABAF1AD
:10068000040F02D94FF0040A01E0C0F1070AD14675
:1006900000F1040ABAF1070F02D24FF0000A01E09C
:1006A000A0F1030AD4464FF0010A0AFA09FAAAF1A6
:1006B000010A0AEA020A0AFA0CFA4FF0010B0BFAD5
:1006C0000CFBABF1010B0BEA030B4AEA0B042146CE
:1006D000404600F089F8BDE8F09F000000BF00F040
:1006E0000702064B19684FF6FF031940044B0B43F2
:1006F00043EA0221014B196000BF70470CED00E096
:100700000000FA0570B504462546681EB0F1807FEA
:1007100001D301200FE0681E4FF0E02148610F2156
:100720004FF0FF3000F060F800204FF0E0218861CA
:1007300007200861002070BD00BFFEE700BFFEE794
:1007400070477047704710B5FFF742FF10BD704704
:100750001D49096801F0200111B31B49091D0968F1
:10076000C8B21A49098801F40041C9B91749098872
:1007700001F4804161B10A2803D00021134A11809D
:1007800020E01249098841F40041104A118019E023
:100790000D2806D10D49098841F480410B4A11808A
:1007A00010E00A490988C1F30D01094A505407496C
:1007B0000988491C054A118011460988C72901DDAD
:1007C0000021118070470000003801400C0000201B
:1007D0001C00002000BFFEE702480068C0F30220B2
:1007E000704700000CED00E010B5002804DB0A079C
:1007F000130E054A135406E00A07140E034A00F0CC
:100800000F031B1FD45410BD00E400E018ED00E0FE
:1008100000BF70474FF0E021096941F004014FF03B
:10082000E0221161054908601146096941F00101A2
:1008300011616FF0704151617047000004000020A9
:1008400010B504464FF47A7104FB01F000F002F891
:1008500010BD000070B5034600224FF0E026756918
:100860000D4E366803FB06F44FF0E026B16910E048
:100870004FF0E026B06988420BD0884202D20E1AAF
:10088000324402E02E1A0E4432440146A24200D302
:1008900000E0EDE700BF70BD0400002000B585B0AA
:1008A00000BF1648806940F0080014498861084676
:1008B000806900F00800009000BF00BF00BF08463C
:1008C000806940F0400088610846806900F040007F
:1008D000009000BF00BF20200190012002900390F3
:1008E0000320049001A90648FFF7CCFC20200190CA
:1008F00001A90448FFF7C6FC05B000BD0010024086
:10090000000C014000180140FFF76EFE4FF4E010AC
:1009100000F086F84820FFF77DFFFFF7BFFF1BE0E0
:10092000012220210D48FFF74DFE002220210C4816
:10093000FFF748FE4FF4FA70FFF782FF00222021F4
:100940000648FFF73FFE012220210548FFF73AFE47
:100950004FF4FA70FFF774FFE2E70000000C01406B
:100960000018014010B5024600210020264B1B68EC
:1009700043F48033244C23600AE000BF224B1B6801
:1009800003F400331BB1B1F5004F00D904E0491C5A
:100990004FF6F0739942F0D300BF4FF6F0739942CF
:1009A00001D301202FE04FF48063174C6360921E47
:1009B00023465B6843EA8243636023465B6843F4F3
:1009C000803363601023114C236023461B6843F07F
:1009D000020323600C4B1B6843F080730A4C2360B6
:1009E00000BF094B1B685B0E002BFAD0064B5B68FF
:1009F00043F00203044C636000BF034B5B68C3F326
:100A00008103022BF9D110BD0010024000200240EA
:100A10004A0A52020243014B1A60704708ED00E097
:100A200010B50446002017490861C86014204861C9
:100A300000208861C8610846006840F00100086035
:100A400008464068104908400E494860084600685A
:100A50000E4908400B4908600846006820F48020D1
:100A600008600846406820F4FE0048604FF41F000C
:100A700088602046FFF776FF00214FF00060FFF707
:100A8000C7FF10BD001002400000FFF8FFFFF6FE98
:100A9000B00A0008000000201C0000006C010008E3
:100AA000CC0A00081C0000202C0700008801000868
:100AB0000024F4000000000000000000000000001E
:0C0AC00000000000100000000100000019
:0400000508000131BD
:00000001FF
